{
  "_format": "hh-sol-artifact-1",
  "contractName": "DappCart",
  "sourceName": "contracts/DappCart.sol",
  "abi": [
    {
      "inputs": [
        {
          "internalType": "string",
          "name": "_web_name",
          "type": "string"
        }
      ],
      "stateMutability": "nonpayable",
      "type": "constructor"
    },
    {
      "inputs": [
        {
          "internalType": "uint256",
          "name": "_id",
          "type": "uint256"
        },
        {
          "internalType": "string",
          "name": "_product_name",
          "type": "string"
        },
        {
          "internalType": "string",
          "name": "_product_desc",
          "type": "string"
        },
        {
          "internalType": "uint256",
          "name": "_product_price",
          "type": "uint256"
        },
        {
          "internalType": "string",
          "name": "_product_image",
          "type": "string"
        },
        {
          "internalType": "string",
          "name": "_category",
          "type": "string"
        },
        {
          "internalType": "uint256",
          "name": "_rating",
          "type": "uint256"
        },
        {
          "internalType": "uint256",
          "name": "_stock",
          "type": "uint256"
        }
      ],
      "name": "CreateProcuct",
      "outputs": [],
      "stateMutability": "nonpayable",
      "type": "function"
    },
    {
      "inputs": [
        {
          "internalType": "uint256",
          "name": "_id",
          "type": "uint256"
        }
      ],
      "name": "Purchase",
      "outputs": [],
      "stateMutability": "payable",
      "type": "function"
    },
    {
      "inputs": [
        {
          "internalType": "uint256",
          "name": "_id",
          "type": "uint256"
        },
        {
          "internalType": "uint256",
          "name": "_stock",
          "type": "uint256"
        },
        {
          "internalType": "uint256",
          "name": "_price",
          "type": "uint256"
        }
      ],
      "name": "changeProduct",
      "outputs": [],
      "stateMutability": "nonpayable",
      "type": "function"
    },
    {
      "inputs": [],
      "name": "cost",
      "outputs": [
        {
          "internalType": "uint256",
          "name": "",
          "type": "uint256"
        }
      ],
      "stateMutability": "view",
      "type": "function"
    },
    {
      "inputs": [],
      "name": "getAllProducts",
      "outputs": [
        {
          "components": [
            {
              "internalType": "uint256",
              "name": "id",
              "type": "uint256"
            },
            {
              "internalType": "string",
              "name": "product_name",
              "type": "string"
            },
            {
              "internalType": "string",
              "name": "desciption",
              "type": "string"
            },
            {
              "internalType": "uint256",
              "name": "product_price",
              "type": "uint256"
            },
            {
              "internalType": "string",
              "name": "category",
              "type": "string"
            },
            {
              "internalType": "string",
              "name": "product_image",
              "type": "string"
            },
            {
              "internalType": "uint256",
              "name": "rating",
              "type": "uint256"
            },
            {
              "internalType": "uint256",
              "name": "stock",
              "type": "uint256"
            }
          ],
          "internalType": "struct DappCart.Product[]",
          "name": "",
          "type": "tuple[]"
        }
      ],
      "stateMutability": "view",
      "type": "function"
    },
    {
      "inputs": [
        {
          "internalType": "address",
          "name": "",
          "type": "address"
        }
      ],
      "name": "orderCount",
      "outputs": [
        {
          "internalType": "uint256",
          "name": "",
          "type": "uint256"
        }
      ],
      "stateMutability": "view",
      "type": "function"
    },
    {
      "inputs": [
        {
          "internalType": "address",
          "name": "",
          "type": "address"
        },
        {
          "internalType": "uint256",
          "name": "",
          "type": "uint256"
        }
      ],
      "name": "orders",
      "outputs": [
        {
          "internalType": "uint256",
          "name": "time",
          "type": "uint256"
        },
        {
          "components": [
            {
              "internalType": "uint256",
              "name": "id",
              "type": "uint256"
            },
            {
              "internalType": "string",
              "name": "product_name",
              "type": "string"
            },
            {
              "internalType": "string",
              "name": "desciption",
              "type": "string"
            },
            {
              "internalType": "uint256",
              "name": "product_price",
              "type": "uint256"
            },
            {
              "internalType": "string",
              "name": "category",
              "type": "string"
            },
            {
              "internalType": "string",
              "name": "product_image",
              "type": "string"
            },
            {
              "internalType": "uint256",
              "name": "rating",
              "type": "uint256"
            },
            {
              "internalType": "uint256",
              "name": "stock",
              "type": "uint256"
            }
          ],
          "internalType": "struct DappCart.Product",
          "name": "product",
          "type": "tuple"
        }
      ],
      "stateMutability": "view",
      "type": "function"
    },
    {
      "inputs": [],
      "name": "owner",
      "outputs": [
        {
          "internalType": "address payable",
          "name": "",
          "type": "address"
        }
      ],
      "stateMutability": "view",
      "type": "function"
    },
    {
      "inputs": [],
      "name": "website_name",
      "outputs": [
        {
          "internalType": "string",
          "name": "",
          "type": "string"
        }
      ],
      "stateMutability": "view",
      "type": "function"
    }
  ],
  "bytecode": "0x6080604052662386f26fc100006002553480156200001c57600080fd5b50604051620024c4380380620024c483398181016040528101906200004291906200022f565b8060009081620000539190620004cb565b5033600160006101000a81548173ffffffffffffffffffffffffffffffffffffffff021916908373ffffffffffffffffffffffffffffffffffffffff16021790555050620005b2565b6000604051905090565b600080fd5b600080fd5b600080fd5b600080fd5b6000601f19601f8301169050919050565b7f4e487b7100000000000000000000000000000000000000000000000000000000600052604160045260246000fd5b6200010582620000ba565b810181811067ffffffffffffffff82111715620001275762000126620000cb565b5b80604052505050565b60006200013c6200009c565b90506200014a8282620000fa565b919050565b600067ffffffffffffffff8211156200016d576200016c620000cb565b5b6200017882620000ba565b9050602081019050919050565b60005b83811015620001a557808201518184015260208101905062000188565b60008484015250505050565b6000620001c8620001c2846200014f565b62000130565b905082815260208101848484011115620001e757620001e6620000b5565b5b620001f484828562000185565b509392505050565b600082601f830112620002145762000213620000b0565b5b815162000226848260208601620001b1565b91505092915050565b600060208284031215620002485762000247620000a6565b5b600082015167ffffffffffffffff811115620002695762000268620000ab565b5b6200027784828501620001fc565b91505092915050565b600081519050919050565b7f4e487b7100000000000000000000000000000000000000000000000000000000600052602260045260246000fd5b60006002820490506001821680620002d357607f821691505b602082108103620002e957620002e86200028b565b5b50919050565b60008190508160005260206000209050919050565b60006020601f8301049050919050565b600082821b905092915050565b600060088302620003537fffffffffffffffffffffffffffffffffffffffffffffffffffffffffffffffff8262000314565b6200035f868362000314565b95508019841693508086168417925050509392505050565b6000819050919050565b6000819050919050565b6000620003ac620003a6620003a08462000377565b62000381565b62000377565b9050919050565b6000819050919050565b620003c8836200038b565b620003e0620003d782620003b3565b84845462000321565b825550505050565b600090565b620003f7620003e8565b62000404818484620003bd565b505050565b5b818110156200042c5762000420600082620003ed565b6001810190506200040a565b5050565b601f8211156200047b576200044581620002ef565b620004508462000304565b8101602085101562000460578190505b620004786200046f8562000304565b83018262000409565b50505b505050565b600082821c905092915050565b6000620004a06000198460080262000480565b1980831691505092915050565b6000620004bb83836200048d565b9150826002028217905092915050565b620004d68262000280565b67ffffffffffffffff811115620004f257620004f1620000cb565b5b620004fe8254620002ba565b6200050b82828562000430565b600060209050601f8311600181146200054357600084156200052e578287015190505b6200053a8582620004ad565b865550620005aa565b601f1984166200055386620002ef565b60005b828110156200057d5784890151825560018201915060208501945060208101905062000556565b868310156200059d578489015162000599601f8916826200048d565b8355505b6001600288020188555050505b505050505050565b611f0280620005c26000396000f3fe6080604052600436106100865760003560e01c8063713d856b11610059578063713d856b14610133578063793b8c6d146101705780638da5cb5b146101ae578063cbcdc4ab146101d9578063e2aeb2ae1461020457610086565b806302ee3a521461008b57806313faede6146100b65780631d1f4e37146100e15780633bd618bf1461010a575b600080fd5b34801561009757600080fd5b506100a0610220565b6040516100ad91906112dd565b60405180910390f35b3480156100c257600080fd5b506100cb6104f0565b6040516100d8919061130e565b60405180910390f35b3480156100ed57600080fd5b506101086004803603810190610103919061149e565b6104f6565b005b34801561011657600080fd5b50610131600480360381019061012c91906115c4565b6106fe565b005b34801561013f57600080fd5b5061015a60048036038101906101559190611675565b6107e7565b604051610167919061130e565b60405180910390f35b34801561017c57600080fd5b50610197600480360381019061019291906116a2565b6107ff565b6040516101a59291906117a7565b60405180910390f35b3480156101ba57600080fd5b506101c3610aab565b6040516101d091906117f8565b60405180910390f35b3480156101e557600080fd5b506101ee610ad1565b6040516101fb919061185d565b60405180910390f35b61021e6004803603810190610219919061187f565b610b5f565b005b60606003805480602002602001604051908101604052809291908181526020016000905b828210156104e757838290600052602060002090600802016040518061010001604052908160008201548152602001600182018054610282906118db565b80601f01602080910402602001604051908101604052809291908181526020018280546102ae906118db565b80156102fb5780601f106102d0576101008083540402835291602001916102fb565b820191906000526020600020905b8154815290600101906020018083116102de57829003601f168201915b50505050508152602001600282018054610314906118db565b80601f0160208091040260200160405190810160405280929190818152602001828054610340906118db565b801561038d5780601f106103625761010080835404028352916020019161038d565b820191906000526020600020905b81548152906001019060200180831161037057829003601f168201915b50505050508152602001600382015481526020016004820180546103b0906118db565b80601f01602080910402602001604051908101604052809291908181526020018280546103dc906118db565b80156104295780601f106103fe57610100808354040283529160200191610429565b820191906000526020600020905b81548152906001019060200180831161040c57829003601f168201915b50505050508152602001600582018054610442906118db565b80601f016020809104026020016040519081016040528092919081815260200182805461046e906118db565b80156104bb5780601f10610490576101008083540402835291602001916104bb565b820191906000526020600020905b81548152906001019060200180831161049e57829003601f168201915b505050505081526020016006820154815260200160078201548152505081526020019060010190610244565b50505050905090565b60025481565b600160009054906101000a900473ffffffffffffffffffffffffffffffffffffffff1673ffffffffffffffffffffffffffffffffffffffff163373ffffffffffffffffffffffffffffffffffffffff1614610586576040517f08c379a000000000000000000000000000000000000000000000000000000000815260040161057d9061197e565b60405180910390fd5b60058211156105ca576040517f08c379a00000000000000000000000000000000000000000000000000000000081526004016105c190611a10565b60405180910390fd5b6000810361060d576040517f08c379a000000000000000000000000000000000000000000000000000000000815260040161060490611a7c565b60405180910390fd5b60036040518061010001604052808a81526020018981526020018881526020018781526020018581526020018681526020018481526020018381525090806001815401808255809150506001900390600052602060002090600802016000909190919091506000820151816000015560208201518160010190816106919190611c48565b5060408201518160020190816106a79190611c48565b506060820151816003015560808201518160040190816106c79190611c48565b5060a08201518160050190816106dd9190611c48565b5060c0820151816006015560e0820151816007015550505050505050505050565b600160009054906101000a900473ffffffffffffffffffffffffffffffffffffffff1673ffffffffffffffffffffffffffffffffffffffff163373ffffffffffffffffffffffffffffffffffffffff161461078e576040517f08c379a00000000000000000000000000000000000000000000000000000000081526004016107859061197e565b60405180910390fd5b81600384815481106107a3576107a2611d1a565b5b90600052602060002090600802016007018190555080600384815481106107cd576107cc611d1a565b5b906000526020600020906008020160030181905550505050565b60046020528060005260406000206000915090505481565b600560205281600052604060002060205280600052604060002060009150915050806000015490806001016040518061010001604052908160008201548152602001600182018054610850906118db565b80601f016020809104026020016040519081016040528092919081815260200182805461087c906118db565b80156108c95780601f1061089e576101008083540402835291602001916108c9565b820191906000526020600020905b8154815290600101906020018083116108ac57829003601f168201915b505050505081526020016002820180546108e2906118db565b80601f016020809104026020016040519081016040528092919081815260200182805461090e906118db565b801561095b5780601f106109305761010080835404028352916020019161095b565b820191906000526020600020905b81548152906001019060200180831161093e57829003601f168201915b505050505081526020016003820154815260200160048201805461097e906118db565b80601f01602080910402602001604051908101604052809291908181526020018280546109aa906118db565b80156109f75780601f106109cc576101008083540402835291602001916109f7565b820191906000526020600020905b8154815290600101906020018083116109da57829003601f168201915b50505050508152602001600582018054610a10906118db565b80601f0160208091040260200160405190810160405280929190818152602001828054610a3c906118db565b8015610a895780601f10610a5e57610100808354040283529160200191610a89565b820191906000526020600020905b815481529060010190602001808311610a6c57829003601f168201915b5050505050815260200160068201548152602001600782015481525050905082565b600160009054906101000a900473ffffffffffffffffffffffffffffffffffffffff1681565b60008054610ade906118db565b80601f0160208091040260200160405190810160405280929190818152602001828054610b0a906118db565b8015610b575780601f10610b2c57610100808354040283529160200191610b57565b820191906000526020600020905b815481529060010190602001808311610b3a57829003601f168201915b505050505081565b600160009054906101000a900473ffffffffffffffffffffffffffffffffffffffff1673ffffffffffffffffffffffffffffffffffffffff163373ffffffffffffffffffffffffffffffffffffffff1603610bef576040517f08c379a0000000000000000000000000000000000000000000000000000000008152600401610be690611d95565b60405180910390fd5b600060038281548110610c0557610c04611d1a565b5b90600052602060002090600802016040518061010001604052908160008201548152602001600182018054610c39906118db565b80601f0160208091040260200160405190810160405280929190818152602001828054610c65906118db565b8015610cb25780601f10610c8757610100808354040283529160200191610cb2565b820191906000526020600020905b815481529060010190602001808311610c9557829003601f168201915b50505050508152602001600282018054610ccb906118db565b80601f0160208091040260200160405190810160405280929190818152602001828054610cf7906118db565b8015610d445780601f10610d1957610100808354040283529160200191610d44565b820191906000526020600020905b815481529060010190602001808311610d2757829003601f168201915b5050505050815260200160038201548152602001600482018054610d67906118db565b80601f0160208091040260200160405190810160405280929190818152602001828054610d93906118db565b8015610de05780601f10610db557610100808354040283529160200191610de0565b820191906000526020600020905b815481529060010190602001808311610dc357829003601f168201915b50505050508152602001600582018054610df9906118db565b80601f0160208091040260200160405190810160405280929190818152602001828054610e25906118db565b8015610e725780601f10610e4757610100808354040283529160200191610e72565b820191906000526020600020905b815481529060010190602001808311610e5557829003601f168201915b505050505081526020016006820154815260200160078201548152505090508060600151341015610ed8576040517f08c379a0000000000000000000000000000000000000000000000000000000008152600401610ecf90611e01565b60405180910390fd5b60006040518060400160405280428152602001838152509050600460003373ffffffffffffffffffffffffffffffffffffffff1673ffffffffffffffffffffffffffffffffffffffff1681526020019081526020016000206000815480929190610f4190611e50565b919050555080600560003373ffffffffffffffffffffffffffffffffffffffff1673ffffffffffffffffffffffffffffffffffffffff1681526020019081526020016000206000600460003373ffffffffffffffffffffffffffffffffffffffff1673ffffffffffffffffffffffffffffffffffffffff168152602001908152602001600020548152602001908152602001600020600082015181600001556020820151816001016000820151816000015560208201518160010190816110089190611c48565b50604082015181600201908161101e9190611c48565b5060608201518160030155608082015181600401908161103e9190611c48565b5060a08201518160050190816110549190611c48565b5060c0820151816006015560e08201518160070155505090505060018260e0015161107f9190611e98565b6003848154811061109357611092611d1a565b5b906000526020600020906008020160070181905550505050565b600081519050919050565b600082825260208201905092915050565b6000819050602082019050919050565b6000819050919050565b6110ec816110d9565b82525050565b600081519050919050565b600082825260208201905092915050565b60005b8381101561112c578082015181840152602081019050611111565b60008484015250505050565b6000601f19601f8301169050919050565b6000611154826110f2565b61115e81856110fd565b935061116e81856020860161110e565b61117781611138565b840191505092915050565b60006101008301600083015161119b60008601826110e3565b50602083015184820360208601526111b38282611149565b915050604083015184820360408601526111cd8282611149565b91505060608301516111e260608601826110e3565b50608083015184820360808601526111fa8282611149565b91505060a083015184820360a08601526112148282611149565b91505060c083015161122960c08601826110e3565b5060e083015161123c60e08601826110e3565b508091505092915050565b60006112538383611182565b905092915050565b6000602082019050919050565b6000611273826110ad565b61127d81856110b8565b93508360208202850161128f856110c9565b8060005b858110156112cb57848403895281516112ac8582611247565b94506112b78361125b565b925060208a01995050600181019050611293565b50829750879550505050505092915050565b600060208201905081810360008301526112f78184611268565b905092915050565b611308816110d9565b82525050565b600060208201905061132360008301846112ff565b92915050565b6000604051905090565b600080fd5b600080fd5b611346816110d9565b811461135157600080fd5b50565b6000813590506113638161133d565b92915050565b600080fd5b600080fd5b7f4e487b7100000000000000000000000000000000000000000000000000000000600052604160045260246000fd5b6113ab82611138565b810181811067ffffffffffffffff821117156113ca576113c9611373565b5b80604052505050565b60006113dd611329565b90506113e982826113a2565b919050565b600067ffffffffffffffff82111561140957611408611373565b5b61141282611138565b9050602081019050919050565b82818337600083830152505050565b600061144161143c846113ee565b6113d3565b90508281526020810184848401111561145d5761145c61136e565b5b61146884828561141f565b509392505050565b600082601f83011261148557611484611369565b5b813561149584826020860161142e565b91505092915050565b600080600080600080600080610100898b0312156114bf576114be611333565b5b60006114cd8b828c01611354565b985050602089013567ffffffffffffffff8111156114ee576114ed611338565b5b6114fa8b828c01611470565b975050604089013567ffffffffffffffff81111561151b5761151a611338565b5b6115278b828c01611470565b96505060606115388b828c01611354565b955050608089013567ffffffffffffffff81111561155957611558611338565b5b6115658b828c01611470565b94505060a089013567ffffffffffffffff81111561158657611585611338565b5b6115928b828c01611470565b93505060c06115a38b828c01611354565b92505060e06115b48b828c01611354565b9150509295985092959890939650565b6000806000606084860312156115dd576115dc611333565b5b60006115eb86828701611354565b93505060206115fc86828701611354565b925050604061160d86828701611354565b9150509250925092565b600073ffffffffffffffffffffffffffffffffffffffff82169050919050565b600061164282611617565b9050919050565b61165281611637565b811461165d57600080fd5b50565b60008135905061166f81611649565b92915050565b60006020828403121561168b5761168a611333565b5b600061169984828501611660565b91505092915050565b600080604083850312156116b9576116b8611333565b5b60006116c785828601611660565b92505060206116d885828601611354565b9150509250929050565b6000610100830160008301516116fb60008601826110e3565b50602083015184820360208601526117138282611149565b9150506040830151848203604086015261172d8282611149565b915050606083015161174260608601826110e3565b506080830151848203608086015261175a8282611149565b91505060a083015184820360a08601526117748282611149565b91505060c083015161178960c08601826110e3565b5060e083015161179c60e08601826110e3565b508091505092915050565b60006040820190506117bc60008301856112ff565b81810360208301526117ce81846116e2565b90509392505050565b60006117e282611617565b9050919050565b6117f2816117d7565b82525050565b600060208201905061180d60008301846117e9565b92915050565b600082825260208201905092915050565b600061182f826110f2565b6118398185611813565b935061184981856020860161110e565b61185281611138565b840191505092915050565b600060208201905081810360008301526118778184611824565b905092915050565b60006020828403121561189557611894611333565b5b60006118a384828501611354565b91505092915050565b7f4e487b7100000000000000000000000000000000000000000000000000000000600052602260045260246000fd5b600060028204905060018216806118f357607f821691505b602082108103611906576119056118ac565b5b50919050565b7f596f7520617265206e6f7420616c6c6f77656420746f20706572666f726d207460008201527f686973206a6f6200000000000000000000000000000000000000000000000000602082015250565b6000611968602783611813565b91506119738261190c565b604082019050919050565b600060208201905081810360008301526119978161195b565b9050919050565b7f526174696e672073686f756c64206e6f7420626520677265617465722074686160008201527f6e20350000000000000000000000000000000000000000000000000000000000602082015250565b60006119fa602383611813565b9150611a058261199e565b604082019050919050565b60006020820190508181036000830152611a29816119ed565b9050919050565b7f50726f64756374206973206e6f7420696e2073746f636b000000000000000000600082015250565b6000611a66601783611813565b9150611a7182611a30565b602082019050919050565b60006020820190508181036000830152611a9581611a59565b9050919050565b60008190508160005260206000209050919050565b60006020601f8301049050919050565b600082821b905092915050565b600060088302611afe7fffffffffffffffffffffffffffffffffffffffffffffffffffffffffffffffff82611ac1565b611b088683611ac1565b95508019841693508086168417925050509392505050565b6000819050919050565b6000611b45611b40611b3b846110d9565b611b20565b6110d9565b9050919050565b6000819050919050565b611b5f83611b2a565b611b73611b6b82611b4c565b848454611ace565b825550505050565b600090565b611b88611b7b565b611b93818484611b56565b505050565b5b81811015611bb757611bac600082611b80565b600181019050611b99565b5050565b601f821115611bfc57611bcd81611a9c565b611bd684611ab1565b81016020851015611be5578190505b611bf9611bf185611ab1565b830182611b98565b50505b505050565b600082821c905092915050565b6000611c1f60001984600802611c01565b1980831691505092915050565b6000611c388383611c0e565b9150826002028217905092915050565b611c51826110f2565b67ffffffffffffffff811115611c6a57611c69611373565b5b611c7482546118db565b611c7f828285611bbb565b600060209050601f831160018114611cb25760008415611ca0578287015190505b611caa8582611c2c565b865550611d12565b601f198416611cc086611a9c565b60005b82811015611ce857848901518255600182019150602085019450602081019050611cc3565b86831015611d055784890151611d01601f891682611c0e565b8355505b6001600288020188555050505b505050505050565b7f4e487b7100000000000000000000000000000000000000000000000000000000600052603260045260246000fd5b7f4f776e65722063616e6e6f74206275792070726f647563747300000000000000600082015250565b6000611d7f601983611813565b9150611d8a82611d49565b602082019050919050565b60006020820190508181036000830152611dae81611d72565b9050919050565b7f4e6f2073756666696369656e7420457468657200000000000000000000000000600082015250565b6000611deb601383611813565b9150611df682611db5565b602082019050919050565b60006020820190508181036000830152611e1a81611dde565b9050919050565b7f4e487b7100000000000000000000000000000000000000000000000000000000600052601160045260246000fd5b6000611e5b826110d9565b91507fffffffffffffffffffffffffffffffffffffffffffffffffffffffffffffffff8203611e8d57611e8c611e21565b5b600182019050919050565b6000611ea3826110d9565b9150611eae836110d9565b9250828203905081811115611ec657611ec5611e21565b5b9291505056fea26469706673582212208bfd6e624fab622b2910e1fe8baf6cb60ca620a763d0f9d13681b242da3b39e264736f6c63430008110033",
  "linkReferences": {},
  "deployedLinkReferences": {}
}